:100000000C9434000C9449000C9449000C94490061
:100010000C9449000C9449000C9449000C9449003C
:100020000C9449000C9449000C9449000C9449002C
:100030000C9449000C9449000C9449000C9449001C
:100040000C9449000C9449000C9449000C9449000C
:100050000C9449000C9449000C9449000C944900FC
:100060000C9449000C94490011241FBECFEFD8E036
:10007000DEBFCDBF11E0A0E0B1E0EAECF0E002C0ED
:1000800005900D92A430B107D9F70E944B000C9453
:1000900063000C940000CF93DF931F92CDB7DEB7BF
:1000A00080E289839981E0910201F09103018081CE
:1000B000892B80839981E0910001F0910101808179
:0A00C000892B8083FFCFF894FFCF57
:0400CA0025002400E9
:00000001FF
